{
  "contractName": "Voting",
  "abi": [
    {
      "inputs": [
        {
          "internalType": "string[]",
          "name": "_candidateNames",
          "type": "string[]"
        },
        {
          "internalType": "address",
          "name": "_votingPermissionsAddress",
          "type": "address"
        }
      ],
      "stateMutability": "nonpayable",
      "type": "constructor"
    },
    {
      "anonymous": false,
      "inputs": [
        {
          "indexed": false,
          "internalType": "string",
          "name": "_name",
          "type": "string"
        }
      ],
      "name": "CandidateAdded",
      "type": "event"
    },
    {
      "anonymous": false,
      "inputs": [
        {
          "indexed": false,
          "internalType": "address",
          "name": "sender",
          "type": "address"
        },
        {
          "indexed": false,
          "internalType": "uint256",
          "name": "amount",
          "type": "uint256"
        }
      ],
      "name": "FallbackCalled",
      "type": "event"
    },
    {
      "anonymous": false,
      "inputs": [
        {
          "indexed": false,
          "internalType": "address",
          "name": "sender",
          "type": "address"
        },
        {
          "indexed": false,
          "internalType": "uint256",
          "name": "amount",
          "type": "uint256"
        }
      ],
      "name": "Received",
      "type": "event"
    },
    {
      "anonymous": false,
      "inputs": [
        {
          "indexed": true,
          "internalType": "address",
          "name": "_voter",
          "type": "address"
        },
        {
          "indexed": false,
          "internalType": "uint256",
          "name": "_candidateIndex",
          "type": "uint256"
        }
      ],
      "name": "Voted",
      "type": "event"
    },
    {
      "stateMutability": "payable",
      "type": "fallback",
      "payable": true
    },
    {
      "inputs": [
        {
          "internalType": "uint256",
          "name": "",
          "type": "uint256"
        }
      ],
      "name": "candidates",
      "outputs": [
        {
          "internalType": "string",
          "name": "name",
          "type": "string"
        },
        {
          "internalType": "uint256",
          "name": "voteCount",
          "type": "uint256"
        }
      ],
      "stateMutability": "view",
      "type": "function",
      "constant": true
    },
    {
      "inputs": [
        {
          "internalType": "address",
          "name": "",
          "type": "address"
        }
      ],
      "name": "hasVoted",
      "outputs": [
        {
          "internalType": "bool",
          "name": "",
          "type": "bool"
        }
      ],
      "stateMutability": "view",
      "type": "function",
      "constant": true
    },
    {
      "inputs": [],
      "name": "owner",
      "outputs": [
        {
          "internalType": "address",
          "name": "",
          "type": "address"
        }
      ],
      "stateMutability": "view",
      "type": "function",
      "constant": true
    },
    {
      "inputs": [],
      "name": "votingPermissionsAddress",
      "outputs": [
        {
          "internalType": "address",
          "name": "",
          "type": "address"
        }
      ],
      "stateMutability": "view",
      "type": "function",
      "constant": true
    },
    {
      "stateMutability": "payable",
      "type": "receive",
      "payable": true
    },
    {
      "inputs": [],
      "name": "getOwner",
      "outputs": [
        {
          "internalType": "address",
          "name": "",
          "type": "address"
        }
      ],
      "stateMutability": "view",
      "type": "function",
      "constant": true
    },
    {
      "inputs": [
        {
          "internalType": "uint256",
          "name": "_candidateIndex",
          "type": "uint256"
        }
      ],
      "name": "vote",
      "outputs": [],
      "stateMutability": "nonpayable",
      "type": "function"
    },
    {
      "inputs": [
        {
          "internalType": "uint256",
          "name": "_candidateIndex",
          "type": "uint256"
        }
      ],
      "name": "totalVotesFor",
      "outputs": [
        {
          "internalType": "uint256",
          "name": "",
          "type": "uint256"
        }
      ],
      "stateMutability": "view",
      "type": "function",
      "constant": true
    },
    {
      "inputs": [],
      "name": "getCandidateCount",
      "outputs": [
        {
          "internalType": "uint256",
          "name": "",
          "type": "uint256"
        }
      ],
      "stateMutability": "view",
      "type": "function",
      "constant": true
    },
    {
      "inputs": [
        {
          "components": [
            {
              "internalType": "string",
              "name": "name",
              "type": "string"
            },
            {
              "internalType": "uint256",
              "name": "voteCount",
              "type": "uint256"
            }
          ],
          "internalType": "struct Voting.Candidate[]",
          "name": "_candidates",
          "type": "tuple[]"
        }
      ],
      "name": "calculateWinner",
      "outputs": [
        {
          "internalType": "string",
          "name": "",
          "type": "string"
        }
      ],
      "stateMutability": "pure",
      "type": "function",
      "constant": true
    },
    {
      "inputs": [
        {
          "internalType": "address payable",
          "name": "_recipient",
          "type": "address"
        },
        {
          "internalType": "uint256",
          "name": "_amount",
          "type": "uint256"
        }
      ],
      "name": "transferEther",
      "outputs": [],
      "stateMutability": "payable",
      "type": "function",
      "payable": true
    }
  ],
  "bytecode": "0x60806040523480156200001157600080fd5b5060405162001b1338038062001b13833981810160405281019062000037919062000572565b33600360006101000a81548173ffffffffffffffffffffffffffffffffffffffff021916908373ffffffffffffffffffffffffffffffffffffffff16021790555060005b82518110156200017a5760006040518060400160405280858481518110620000a857620000a7620005d8565b5b6020026020010151815260200160008152509080600181540180825580915050600190039060005260206000209060020201600090919091909150600082015181600001908051906020019062000101929190620001c4565b506020820151816001015550507ff29562dad1599aea0ebb142466120aab326d5efa8f839df82a9c064bf78e8938838281518110620001455762000144620005d8565b5b60200260200101516040516200015c919062000664565b60405180910390a180806200017190620006c1565b9150506200007b565b5080600160006101000a81548173ffffffffffffffffffffffffffffffffffffffff021916908373ffffffffffffffffffffffffffffffffffffffff160217905550505062000772565b828054620001d2906200073d565b90600052602060002090601f016020900481019282620001f6576000855562000242565b82601f106200021157805160ff191683800117855562000242565b8280016001018555821562000242579182015b828111156200024157825182559160200191906001019062000224565b5b50905062000251919062000255565b5090565b5b808211156200027057600081600090555060010162000256565b5090565b6000604051905090565b600080fd5b600080fd5b600080fd5b6000601f19601f8301169050919050565b7f4e487b7100000000000000000000000000000000000000000000000000000000600052604160045260246000fd5b620002d8826200028d565b810181811067ffffffffffffffff82111715620002fa57620002f96200029e565b5b80604052505050565b60006200030f62000274565b90506200031d8282620002cd565b919050565b600067ffffffffffffffff82111562000340576200033f6200029e565b5b602082029050602081019050919050565b600080fd5b600080fd5b600067ffffffffffffffff8211156200037957620003786200029e565b5b62000384826200028d565b9050602081019050919050565b60005b83811015620003b157808201518184015260208101905062000394565b83811115620003c1576000848401525b50505050565b6000620003de620003d8846200035b565b62000303565b905082815260208101848484011115620003fd57620003fc62000356565b5b6200040a84828562000391565b509392505050565b600082601f8301126200042a576200042962000288565b5b81516200043c848260208601620003c7565b91505092915050565b60006200045c620004568462000322565b62000303565b9050808382526020820190506020840283018581111562000482576200048162000351565b5b835b81811015620004d057805167ffffffffffffffff811115620004ab57620004aa62000288565b5b808601620004ba898262000412565b8552602085019450505060208101905062000484565b5050509392505050565b600082601f830112620004f257620004f162000288565b5b81516200050484826020860162000445565b91505092915050565b600073ffffffffffffffffffffffffffffffffffffffff82169050919050565b60006200053a826200050d565b9050919050565b6200054c816200052d565b81146200055857600080fd5b50565b6000815190506200056c8162000541565b92915050565b600080604083850312156200058c576200058b6200027e565b5b600083015167ffffffffffffffff811115620005ad57620005ac62000283565b5b620005bb85828601620004da565b9250506020620005ce858286016200055b565b9150509250929050565b7f4e487b7100000000000000000000000000000000000000000000000000000000600052603260045260246000fd5b600081519050919050565b600082825260208201905092915050565b6000620006308262000607565b6200063c818562000612565b93506200064e81856020860162000391565b62000659816200028d565b840191505092915050565b6000602082019050818103600083015262000680818462000623565b905092915050565b7f4e487b7100000000000000000000000000000000000000000000000000000000600052601160045260246000fd5b6000819050919050565b6000620006ce82620006b7565b91507fffffffffffffffffffffffffffffffffffffffffffffffffffffffffffffffff820362000703576200070262000688565b5b600182019050919050565b7f4e487b7100000000000000000000000000000000000000000000000000000000600052602260045260246000fd5b600060028204905060018216806200075657607f821691505b6020821081036200076c576200076b6200070e565b5b50919050565b61139180620007826000396000f3fe6080604052600436106100955760003560e01c80633477ee2e116100595780633477ee2e146101fa5780635488412514610238578063893d20e8146102635780638da5cb5b1461028e578063a805f1ca146102b9576100d5565b80630121b93f1461011057806305b1137b1461013957806309eef43e146101555780632d19de781461019257806330a56347146101cf576100d5565b366100d5577f88a5966d370b9919b20f3e2c13ff65706f196a4e32cc2c12bf57088f8852587433346040516100cb929190610968565b60405180910390a1005b7f4fdfaf7cd2ae67f3639149bddef2addc991d3f26e0121df03517ec62523649ca3334604051610106929190610968565b60405180910390a1005b34801561011c57600080fd5b50610137600480360381019061013291906109d1565b6102f6565b005b610153600480360381019061014e9190610a3c565b61058c565b005b34801561016157600080fd5b5061017c60048036038101906101779190610aa8565b61061a565b6040516101899190610af0565b60405180910390f35b34801561019e57600080fd5b506101b960048036038101906101b49190610dad565b61063a565b6040516101c69190610e7e565b60405180910390f35b3480156101db57600080fd5b506101e461075b565b6040516101f19190610ea0565b60405180910390f35b34801561020657600080fd5b50610221600480360381019061021c91906109d1565b610767565b60405161022f929190610ebb565b60405180910390f35b34801561024457600080fd5b5061024d610823565b60405161025a9190610eeb565b60405180910390f35b34801561026f57600080fd5b50610278610849565b6040516102859190610eeb565b60405180910390f35b34801561029a57600080fd5b506102a3610873565b6040516102b09190610eeb565b60405180910390f35b3480156102c557600080fd5b506102e060048036038101906102db91906109d1565b610899565b6040516102ed9190610ea0565b60405180910390f35b600160009054906101000a900473ffffffffffffffffffffffffffffffffffffffff1673ffffffffffffffffffffffffffffffffffffffff166380352c263360126040518363ffffffff1660e01b8152600401610354929190610f4b565b602060405180830381865afa158015610371573d6000803e3d6000fd5b505050506040513d601f19601f820116820180604052508101906103959190610fa0565b6103d4576040517f08c379a00000000000000000000000000000000000000000000000000000000081526004016103cb90611019565b60405180910390fd5b600080549050811061041b576040517f08c379a000000000000000000000000000000000000000000000000000000000815260040161041290611085565b60405180910390fd5b600260003373ffffffffffffffffffffffffffffffffffffffff1673ffffffffffffffffffffffffffffffffffffffff16815260200190815260200160002060009054906101000a900460ff16156104a8576040517f08c379a000000000000000000000000000000000000000000000000000000000815260040161049f906110f1565b60405180910390fd5b600081815481106104bc576104bb611111565b5b906000526020600020906002020160010160008154809291906104de9061116f565b91905055506001600260003373ffffffffffffffffffffffffffffffffffffffff1673ffffffffffffffffffffffffffffffffffffffff16815260200190815260200160002060006101000a81548160ff0219169083151502179055503373ffffffffffffffffffffffffffffffffffffffff167f4d99b957a2bc29a30ebd96a7be8e68fe50a3c701db28a91436490b7d53870ca4826040516105819190610ea0565b60405180910390a250565b804710156105cf576040517f08c379a00000000000000000000000000000000000000000000000000000000081526004016105c690611203565b60405180910390fd5b8173ffffffffffffffffffffffffffffffffffffffff166108fc829081150290604051600060405180830381858888f19350505050158015610615573d6000803e3d6000fd5b505050565b60026020528060005260406000206000915054906101000a900460ff1681565b60606000825111610680576040517f08c379a00000000000000000000000000000000000000000000000000000000081526004016106779061126f565b60405180910390fd5b6000606060005b845181101561070c57828582815181106106a4576106a3611111565b5b60200260200101516020015111156106f9578481815181106106c9576106c8611111565b5b60200260200101516020015192508481815181106106ea576106e9611111565b5b60200260200101516000015191505b80806107049061116f565b915050610687565b506000815111610751576040517f08c379a0000000000000000000000000000000000000000000000000000000008152600401610748906112db565b60405180910390fd5b8092505050919050565b60008080549050905090565b6000818154811061077757600080fd5b906000526020600020906002020160009150905080600001805461079a9061132a565b80601f01602080910402602001604051908101604052809291908181526020018280546107c69061132a565b80156108135780601f106107e857610100808354040283529160200191610813565b820191906000526020600020905b8154815290600101906020018083116107f657829003601f168201915b5050505050908060010154905082565b600160009054906101000a900473ffffffffffffffffffffffffffffffffffffffff1681565b6000600360009054906101000a900473ffffffffffffffffffffffffffffffffffffffff16905090565b600360009054906101000a900473ffffffffffffffffffffffffffffffffffffffff1681565b6000808054905082106108e1576040517f08c379a00000000000000000000000000000000000000000000000000000000081526004016108d890611085565b60405180910390fd5b600082815481106108f5576108f4611111565b5b9060005260206000209060020201600101549050919050565b600073ffffffffffffffffffffffffffffffffffffffff82169050919050565b60006109398261090e565b9050919050565b6109498161092e565b82525050565b6000819050919050565b6109628161094f565b82525050565b600060408201905061097d6000830185610940565b61098a6020830184610959565b9392505050565b6000604051905090565b600080fd5b600080fd5b6109ae8161094f565b81146109b957600080fd5b50565b6000813590506109cb816109a5565b92915050565b6000602082840312156109e7576109e661099b565b5b60006109f5848285016109bc565b91505092915050565b6000610a098261090e565b9050919050565b610a19816109fe565b8114610a2457600080fd5b50565b600081359050610a3681610a10565b92915050565b60008060408385031215610a5357610a5261099b565b5b6000610a6185828601610a27565b9250506020610a72858286016109bc565b9150509250929050565b610a858161092e565b8114610a9057600080fd5b50565b600081359050610aa281610a7c565b92915050565b600060208284031215610abe57610abd61099b565b5b6000610acc84828501610a93565b91505092915050565b60008115159050919050565b610aea81610ad5565b82525050565b6000602082019050610b056000830184610ae1565b92915050565b600080fd5b6000601f19601f8301169050919050565b7f4e487b7100000000000000000000000000000000000000000000000000000000600052604160045260246000fd5b610b5982610b10565b810181811067ffffffffffffffff82111715610b7857610b77610b21565b5b80604052505050565b6000610b8b610991565b9050610b978282610b50565b919050565b600067ffffffffffffffff821115610bb757610bb6610b21565b5b602082029050602081019050919050565b600080fd5b600080fd5b600080fd5b600080fd5b600067ffffffffffffffff821115610bf757610bf6610b21565b5b610c0082610b10565b9050602081019050919050565b82818337600083830152505050565b6000610c2f610c2a84610bdc565b610b81565b905082815260208101848484011115610c4b57610c4a610bd7565b5b610c56848285610c0d565b509392505050565b600082601f830112610c7357610c72610b0b565b5b8135610c83848260208601610c1c565b91505092915050565b600060408284031215610ca257610ca1610bcd565b5b610cac6040610b81565b9050600082013567ffffffffffffffff811115610ccc57610ccb610bd2565b5b610cd884828501610c5e565b6000830152506020610cec848285016109bc565b60208301525092915050565b6000610d0b610d0684610b9c565b610b81565b90508083825260208201905060208402830185811115610d2e57610d2d610bc8565b5b835b81811015610d7557803567ffffffffffffffff811115610d5357610d52610b0b565b5b808601610d608982610c8c565b85526020850194505050602081019050610d30565b5050509392505050565b600082601f830112610d9457610d93610b0b565b5b8135610da4848260208601610cf8565b91505092915050565b600060208284031215610dc357610dc261099b565b5b600082013567ffffffffffffffff811115610de157610de06109a0565b5b610ded84828501610d7f565b91505092915050565b600081519050919050565b600082825260208201905092915050565b60005b83811015610e30578082015181840152602081019050610e15565b83811115610e3f576000848401525b50505050565b6000610e5082610df6565b610e5a8185610e01565b9350610e6a818560208601610e12565b610e7381610b10565b840191505092915050565b60006020820190508181036000830152610e988184610e45565b905092915050565b6000602082019050610eb56000830184610959565b92915050565b60006040820190508181036000830152610ed58185610e45565b9050610ee46020830184610959565b9392505050565b6000602082019050610f006000830184610940565b92915050565b6000819050919050565b6000819050919050565b6000610f35610f30610f2b84610f06565b610f10565b61094f565b9050919050565b610f4581610f1a565b82525050565b6000604082019050610f606000830185610940565b610f6d6020830184610f3c565b9392505050565b610f7d81610ad5565b8114610f8857600080fd5b50565b600081519050610f9a81610f74565b92915050565b600060208284031215610fb657610fb561099b565b5b6000610fc484828501610f8b565b91505092915050565b7f596f7520617265206e6f7420656c696769626c6520746f20766f746500000000600082015250565b6000611003601c83610e01565b915061100e82610fcd565b602082019050919050565b6000602082019050818103600083015261103281610ff6565b9050919050565b7f496e76616c69642063616e64696461746520696e646578000000000000000000600082015250565b600061106f601783610e01565b915061107a82611039565b602082019050919050565b6000602082019050818103600083015261109e81611062565b9050919050565b7f596f75206861766520616c726561647920766f74656400000000000000000000600082015250565b60006110db601683610e01565b91506110e6826110a5565b602082019050919050565b6000602082019050818103600083015261110a816110ce565b9050919050565b7f4e487b7100000000000000000000000000000000000000000000000000000000600052603260045260246000fd5b7f4e487b7100000000000000000000000000000000000000000000000000000000600052601160045260246000fd5b600061117a8261094f565b91507fffffffffffffffffffffffffffffffffffffffffffffffffffffffffffffffff82036111ac576111ab611140565b5b600182019050919050565b7f496e73756666696369656e742062616c616e636520696e20636f6e7472616374600082015250565b60006111ed602083610e01565b91506111f8826111b7565b602082019050919050565b6000602082019050818103600083015261121c816111e0565b9050919050565b7f4e6f2063616e646964617465732070726f766964656400000000000000000000600082015250565b6000611259601683610e01565b915061126482611223565b602082019050919050565b600060208201905081810360008301526112888161124c565b9050919050565b7f4e6f2077696e6e657220666f756e640000000000000000000000000000000000600082015250565b60006112c5600f83610e01565b91506112d08261128f565b602082019050919050565b600060208201905081810360008301526112f4816112b8565b9050919050565b7f4e487b7100000000000000000000000000000000000000000000000000000000600052602260045260246000fd5b6000600282049050600182168061134257607f821691505b602082108103611355576113546112fb565b5b5091905056fea264697066735822122036b622afbe093b5d0381abc469ecb00bb4d9388c54e13e85579cd27d77000d3464736f6c634300080d0033",
  "immutableReferences": {},
  "source": "pragma solidity ^0.8.0;\r\n\r\nimport \"./VotingPermissions.sol\";\r\n\r\ncontract Voting {\r\n    // Struct to represent a candidate\r\n    struct Candidate {\r\n        string name;\r\n        uint256 voteCount;\r\n    }\r\n\r\n    // Array of candidates\r\n    Candidate[] public candidates;\r\n\r\n     // Address of the voting permissions contract\r\n    address public votingPermissionsAddress;\r\n\r\n    // Mapping to track if an address has voted\r\n    mapping(address => bool) public hasVoted;\r\n\r\n    // Event emitted when a voter casts a vote\r\n    event Voted(address indexed _voter, uint256 _candidateIndex);\r\n\r\n    // Event emitted when a new candidate is added\r\n    event CandidateAdded(string _name);\r\n\r\n    // Owner of the contract\r\n    address public owner;\r\n\r\n    // Modifier to restrict access to the owner\r\n    modifier onlyOwner() {\r\n        require(msg.sender == owner, \"Only the owner can call this function\");\r\n        _;\r\n    }\r\n\r\n    // Modifier to check eligibility based on age requirement\r\n    modifier eligibleToVote() {\r\n        require(VotingPermissions(votingPermissionsAddress).meetsAgeRequirement(msg.sender, 18), \"You are not eligible to vote\");\r\n        _;\r\n    }\r\n\r\n    // Constructor to initialize candidates and set owner\r\n    constructor(string[] memory _candidateNames, address _votingPermissionsAddress) {\r\n        owner = msg.sender;\r\n        for (uint256 i = 0; i < _candidateNames.length; i++) {\r\n            candidates.push(Candidate({\r\n                name: _candidateNames[i],\r\n                voteCount: 0\r\n            }));\r\n            emit CandidateAdded(_candidateNames[i]);\r\n        }\r\n        votingPermissionsAddress = _votingPermissionsAddress;\r\n    }\r\n\r\n    // function to get the owner of the contract\r\n\r\n    function getOwner() external view returns (address) {\r\n        return owner;\r\n    }\r\n\r\n\r\n    // new function to vote for candidate\r\n\r\n    function vote(uint256 _candidateIndex) external eligibleToVote  {\r\n    require(_candidateIndex < candidates.length, \"Invalid candidate index\");\r\n\r\n    // Check if the sender has already voted\r\n    require(!hasVoted[msg.sender], \"You have already voted\");\r\n\r\n    // Increment the vote count for the selected candidate\r\n    candidates[_candidateIndex].voteCount++;\r\n    hasVoted[msg.sender] = true;\r\n\r\n    emit Voted(msg.sender, _candidateIndex);\r\n    }\r\n\r\n\r\n   // new function to vote for candidate\r\n\r\n    // Function to get the total votes for a candidate\r\n    function totalVotesFor(uint256 _candidateIndex) external view returns (uint256) {\r\n        require(_candidateIndex < candidates.length, \"Invalid candidate index\");\r\n        return candidates[_candidateIndex].voteCount;\r\n    }\r\n\r\n    // Function to get the total number of candidates\r\n    function getCandidateCount() external view returns (uint256) {\r\n        return candidates.length;\r\n    }\r\n\r\n     function calculateWinner(Candidate[] memory _candidates) external pure returns (string memory) {\r\n        require(_candidates.length > 0, \"No candidates provided\");\r\n        \r\n        uint256 winningVoteCount = 0;\r\n        string memory winnerName;\r\n        \r\n        for (uint256 i = 0; i < _candidates.length; i++) {\r\n            if (_candidates[i].voteCount > winningVoteCount) {\r\n                winningVoteCount = _candidates[i].voteCount;\r\n                winnerName = _candidates[i].name;\r\n            }\r\n        }\r\n        \r\n        require(bytes(winnerName).length > 0, \"No winner found\");\r\n        \r\n        return winnerName;\r\n    }\r\n\r\n    function transferEther(address payable _recipient, uint256 _amount) external payable {\r\n        require(address(this).balance >= _amount, \"Insufficient balance in contract\");\r\n        // Transfer Ether to the recipient\r\n        _recipient.transfer(_amount);\r\n    }\r\n\r\n    receive() external payable {\r\n        // Afieaz un eveniment pentru a confirma primirea Ether.\r\n        emit Received(msg.sender, msg.value);\r\n    }\r\n\r\n    // Funcia fallback() este apelat atunci cnd o tranzacie este trimis ctre contract,\r\n    // dar niciuna dintre funciile sale nu se potrivete cu semntura tranzaciei sau tranzacia este fr date.\r\n    fallback() external payable {\r\n        // Afieaz un eveniment pentru a confirma primirea Ether n fallback.\r\n        emit FallbackCalled(msg.sender, msg.value);\r\n    }\r\n\r\n    // Evenimente pentru a nregistra primirea Ether.\r\n    event Received(address sender, uint256 amount);\r\n\r\n    // Eveniment pentru a nregistra apelul funciei fallback().\r\n    event FallbackCalled(address sender, uint256 amount);\r\n\r\n    \r\n}\r\n",
  "sourcePath": "C:\\Users\\Elena Georgescu\\Documents\\elena_fac\\blockchain_david\\BlockChain\\contracts\\Voting.sol",
  "compiler": {
    "name": "solc",
    "version": "0.8.13+commit.abaa5c0e.Emscripten.clang"
  },
  "schemaVersion": "3.4.16",
  "updatedAt": "2024-05-15T18:32:50.346Z",
  "networkType": "ethereum",
  "devdoc": {
    "kind": "dev",
    "methods": {},
    "version": 1
  },
  "userdoc": {
    "kind": "user",
    "methods": {},
    "version": 1
  }
}