{
  "contractName": "Voting",
  "abi": [
    {
      "inputs": [
        {
          "internalType": "string[]",
          "name": "_candidateNames",
          "type": "string[]"
        },
        {
          "internalType": "address",
          "name": "_votingPermissionsAddress",
          "type": "address"
        }
      ],
      "stateMutability": "nonpayable",
      "type": "constructor"
    },
    {
      "anonymous": false,
      "inputs": [
        {
          "indexed": false,
          "internalType": "string",
          "name": "_name",
          "type": "string"
        }
      ],
      "name": "CandidateAdded",
      "type": "event"
    },
    {
      "anonymous": false,
      "inputs": [
        {
          "indexed": true,
          "internalType": "address",
          "name": "_voter",
          "type": "address"
        },
        {
          "indexed": false,
          "internalType": "uint256",
          "name": "_candidateIndex",
          "type": "uint256"
        }
      ],
      "name": "Voted",
      "type": "event"
    },
    {
      "inputs": [
        {
          "internalType": "uint256",
          "name": "",
          "type": "uint256"
        }
      ],
      "name": "candidates",
      "outputs": [
        {
          "internalType": "string",
          "name": "name",
          "type": "string"
        },
        {
          "internalType": "uint256",
          "name": "voteCount",
          "type": "uint256"
        }
      ],
      "stateMutability": "view",
      "type": "function",
      "constant": true
    },
    {
      "inputs": [
        {
          "internalType": "address",
          "name": "",
          "type": "address"
        }
      ],
      "name": "hasVoted",
      "outputs": [
        {
          "internalType": "bool",
          "name": "",
          "type": "bool"
        }
      ],
      "stateMutability": "view",
      "type": "function",
      "constant": true
    },
    {
      "inputs": [],
      "name": "owner",
      "outputs": [
        {
          "internalType": "address",
          "name": "",
          "type": "address"
        }
      ],
      "stateMutability": "view",
      "type": "function",
      "constant": true
    },
    {
      "inputs": [],
      "name": "votingPermissionsAddress",
      "outputs": [
        {
          "internalType": "address",
          "name": "",
          "type": "address"
        }
      ],
      "stateMutability": "view",
      "type": "function",
      "constant": true
    },
    {
      "inputs": [],
      "name": "getOwner",
      "outputs": [
        {
          "internalType": "address",
          "name": "",
          "type": "address"
        }
      ],
      "stateMutability": "view",
      "type": "function",
      "constant": true
    },
    {
      "inputs": [
        {
          "internalType": "uint256",
          "name": "_candidateIndex",
          "type": "uint256"
        }
      ],
      "name": "vote",
      "outputs": [],
      "stateMutability": "nonpayable",
      "type": "function"
    },
    {
      "inputs": [
        {
          "internalType": "uint256",
          "name": "_candidateIndex",
          "type": "uint256"
        }
      ],
      "name": "totalVotesFor",
      "outputs": [
        {
          "internalType": "uint256",
          "name": "",
          "type": "uint256"
        }
      ],
      "stateMutability": "view",
      "type": "function",
      "constant": true
    },
    {
      "inputs": [],
      "name": "getCandidateCount",
      "outputs": [
        {
          "internalType": "uint256",
          "name": "",
          "type": "uint256"
        }
      ],
      "stateMutability": "view",
      "type": "function",
      "constant": true
    },
    {
      "inputs": [
        {
          "components": [
            {
              "internalType": "string",
              "name": "name",
              "type": "string"
            },
            {
              "internalType": "uint256",
              "name": "voteCount",
              "type": "uint256"
            }
          ],
          "internalType": "struct Voting.Candidate[]",
          "name": "_candidates",
          "type": "tuple[]"
        }
      ],
      "name": "calculateWinner",
      "outputs": [
        {
          "internalType": "string",
          "name": "",
          "type": "string"
        }
      ],
      "stateMutability": "pure",
      "type": "function",
      "constant": true
    },
    {
      "inputs": [
        {
          "internalType": "address payable",
          "name": "_recipient",
          "type": "address"
        },
        {
          "internalType": "uint256",
          "name": "_amount",
          "type": "uint256"
        }
      ],
      "name": "transferEther",
      "outputs": [],
      "stateMutability": "payable",
      "type": "function",
      "payable": true
    }
  ],
  "bytecode": "0x60806040523480156200001157600080fd5b5060405162001a7038038062001a70833981810160405281019062000037919062000572565b33600360006101000a81548173ffffffffffffffffffffffffffffffffffffffff021916908373ffffffffffffffffffffffffffffffffffffffff16021790555060005b82518110156200017a5760006040518060400160405280858481518110620000a857620000a7620005d8565b5b6020026020010151815260200160008152509080600181540180825580915050600190039060005260206000209060020201600090919091909150600082015181600001908051906020019062000101929190620001c4565b506020820151816001015550507ff29562dad1599aea0ebb142466120aab326d5efa8f839df82a9c064bf78e8938838281518110620001455762000144620005d8565b5b60200260200101516040516200015c919062000664565b60405180910390a180806200017190620006c1565b9150506200007b565b5080600160006101000a81548173ffffffffffffffffffffffffffffffffffffffff021916908373ffffffffffffffffffffffffffffffffffffffff160217905550505062000772565b828054620001d2906200073d565b90600052602060002090601f016020900481019282620001f6576000855562000242565b82601f106200021157805160ff191683800117855562000242565b8280016001018555821562000242579182015b828111156200024157825182559160200191906001019062000224565b5b50905062000251919062000255565b5090565b5b808211156200027057600081600090555060010162000256565b5090565b6000604051905090565b600080fd5b600080fd5b600080fd5b6000601f19601f8301169050919050565b7f4e487b7100000000000000000000000000000000000000000000000000000000600052604160045260246000fd5b620002d8826200028d565b810181811067ffffffffffffffff82111715620002fa57620002f96200029e565b5b80604052505050565b60006200030f62000274565b90506200031d8282620002cd565b919050565b600067ffffffffffffffff82111562000340576200033f6200029e565b5b602082029050602081019050919050565b600080fd5b600080fd5b600067ffffffffffffffff8211156200037957620003786200029e565b5b62000384826200028d565b9050602081019050919050565b60005b83811015620003b157808201518184015260208101905062000394565b83811115620003c1576000848401525b50505050565b6000620003de620003d8846200035b565b62000303565b905082815260208101848484011115620003fd57620003fc62000356565b5b6200040a84828562000391565b509392505050565b600082601f8301126200042a576200042962000288565b5b81516200043c848260208601620003c7565b91505092915050565b60006200045c620004568462000322565b62000303565b9050808382526020820190506020840283018581111562000482576200048162000351565b5b835b81811015620004d057805167ffffffffffffffff811115620004ab57620004aa62000288565b5b808601620004ba898262000412565b8552602085019450505060208101905062000484565b5050509392505050565b600082601f830112620004f257620004f162000288565b5b81516200050484826020860162000445565b91505092915050565b600073ffffffffffffffffffffffffffffffffffffffff82169050919050565b60006200053a826200050d565b9050919050565b6200054c816200052d565b81146200055857600080fd5b50565b6000815190506200056c8162000541565b92915050565b600080604083850312156200058c576200058b6200027e565b5b600083015167ffffffffffffffff811115620005ad57620005ac62000283565b5b620005bb85828601620004da565b9250506020620005ce858286016200055b565b9150509250929050565b7f4e487b7100000000000000000000000000000000000000000000000000000000600052603260045260246000fd5b600081519050919050565b600082825260208201905092915050565b6000620006308262000607565b6200063c818562000612565b93506200064e81856020860162000391565b62000659816200028d565b840191505092915050565b6000602082019050818103600083015262000680818462000623565b905092915050565b7f4e487b7100000000000000000000000000000000000000000000000000000000600052601160045260246000fd5b6000819050919050565b6000620006ce82620006b7565b91507fffffffffffffffffffffffffffffffffffffffffffffffffffffffffffffffff820362000703576200070262000688565b5b600182019050919050565b7f4e487b7100000000000000000000000000000000000000000000000000000000600052602260045260246000fd5b600060028204905060018216806200075657607f821691505b6020821081036200076c576200076b6200070e565b5b50919050565b6112ee80620007826000396000f3fe6080604052600436106100915760003560e01c80633477ee2e116100595780633477ee2e1461018057806354884125146101be578063893d20e8146101e95780638da5cb5b14610214578063a805f1ca1461023f57610091565b80630121b93f1461009657806305b1137b146100bf57806309eef43e146100db5780632d19de781461011857806330a5634714610155575b600080fd5b3480156100a257600080fd5b506100bd60048036038101906100b891906108de565b61027c565b005b6100d960048036038101906100d49190610969565b610512565b005b3480156100e757600080fd5b5061010260048036038101906100fd91906109e7565b6105a0565b60405161010f9190610a2f565b60405180910390f35b34801561012457600080fd5b5061013f600480360381019061013a9190610cec565b6105c0565b60405161014c9190610dbd565b60405180910390f35b34801561016157600080fd5b5061016a6106e1565b6040516101779190610dee565b60405180910390f35b34801561018c57600080fd5b506101a760048036038101906101a291906108de565b6106ed565b6040516101b5929190610e09565b60405180910390f35b3480156101ca57600080fd5b506101d36107a9565b6040516101e09190610e48565b60405180910390f35b3480156101f557600080fd5b506101fe6107cf565b60405161020b9190610e48565b60405180910390f35b34801561022057600080fd5b506102296107f9565b6040516102369190610e48565b60405180910390f35b34801561024b57600080fd5b50610266600480360381019061026191906108de565b61081f565b6040516102739190610dee565b60405180910390f35b600160009054906101000a900473ffffffffffffffffffffffffffffffffffffffff1673ffffffffffffffffffffffffffffffffffffffff166380352c263360126040518363ffffffff1660e01b81526004016102da929190610ea8565b602060405180830381865afa1580156102f7573d6000803e3d6000fd5b505050506040513d601f19601f8201168201806040525081019061031b9190610efd565b61035a576040517f08c379a000000000000000000000000000000000000000000000000000000000815260040161035190610f76565b60405180910390fd5b60008054905081106103a1576040517f08c379a000000000000000000000000000000000000000000000000000000000815260040161039890610fe2565b60405180910390fd5b600260003373ffffffffffffffffffffffffffffffffffffffff1673ffffffffffffffffffffffffffffffffffffffff16815260200190815260200160002060009054906101000a900460ff161561042e576040517f08c379a00000000000000000000000000000000000000000000000000000000081526004016104259061104e565b60405180910390fd5b600081815481106104425761044161106e565b5b90600052602060002090600202016001016000815480929190610464906110cc565b91905055506001600260003373ffffffffffffffffffffffffffffffffffffffff1673ffffffffffffffffffffffffffffffffffffffff16815260200190815260200160002060006101000a81548160ff0219169083151502179055503373ffffffffffffffffffffffffffffffffffffffff167f4d99b957a2bc29a30ebd96a7be8e68fe50a3c701db28a91436490b7d53870ca4826040516105079190610dee565b60405180910390a250565b80471015610555576040517f08c379a000000000000000000000000000000000000000000000000000000000815260040161054c90611160565b60405180910390fd5b8173ffffffffffffffffffffffffffffffffffffffff166108fc829081150290604051600060405180830381858888f1935050505015801561059b573d6000803e3d6000fd5b505050565b60026020528060005260406000206000915054906101000a900460ff1681565b60606000825111610606576040517f08c379a00000000000000000000000000000000000000000000000000000000081526004016105fd906111cc565b60405180910390fd5b6000606060005b8451811015610692578285828151811061062a5761062961106e565b5b602002602001015160200151111561067f5784818151811061064f5761064e61106e565b5b60200260200101516020015192508481815181106106705761066f61106e565b5b60200260200101516000015191505b808061068a906110cc565b91505061060d565b5060008151116106d7576040517f08c379a00000000000000000000000000000000000000000000000000000000081526004016106ce90611238565b60405180910390fd5b8092505050919050565b60008080549050905090565b600081815481106106fd57600080fd5b906000526020600020906002020160009150905080600001805461072090611287565b80601f016020809104026020016040519081016040528092919081815260200182805461074c90611287565b80156107995780601f1061076e57610100808354040283529160200191610799565b820191906000526020600020905b81548152906001019060200180831161077c57829003601f168201915b5050505050908060010154905082565b600160009054906101000a900473ffffffffffffffffffffffffffffffffffffffff1681565b6000600360009054906101000a900473ffffffffffffffffffffffffffffffffffffffff16905090565b600360009054906101000a900473ffffffffffffffffffffffffffffffffffffffff1681565b600080805490508210610867576040517f08c379a000000000000000000000000000000000000000000000000000000000815260040161085e90610fe2565b60405180910390fd5b6000828154811061087b5761087a61106e565b5b9060005260206000209060020201600101549050919050565b6000604051905090565b600080fd5b600080fd5b6000819050919050565b6108bb816108a8565b81146108c657600080fd5b50565b6000813590506108d8816108b2565b92915050565b6000602082840312156108f4576108f361089e565b5b6000610902848285016108c9565b91505092915050565b600073ffffffffffffffffffffffffffffffffffffffff82169050919050565b60006109368261090b565b9050919050565b6109468161092b565b811461095157600080fd5b50565b6000813590506109638161093d565b92915050565b600080604083850312156109805761097f61089e565b5b600061098e85828601610954565b925050602061099f858286016108c9565b9150509250929050565b60006109b48261090b565b9050919050565b6109c4816109a9565b81146109cf57600080fd5b50565b6000813590506109e1816109bb565b92915050565b6000602082840312156109fd576109fc61089e565b5b6000610a0b848285016109d2565b91505092915050565b60008115159050919050565b610a2981610a14565b82525050565b6000602082019050610a446000830184610a20565b92915050565b600080fd5b6000601f19601f8301169050919050565b7f4e487b7100000000000000000000000000000000000000000000000000000000600052604160045260246000fd5b610a9882610a4f565b810181811067ffffffffffffffff82111715610ab757610ab6610a60565b5b80604052505050565b6000610aca610894565b9050610ad68282610a8f565b919050565b600067ffffffffffffffff821115610af657610af5610a60565b5b602082029050602081019050919050565b600080fd5b600080fd5b600080fd5b600080fd5b600067ffffffffffffffff821115610b3657610b35610a60565b5b610b3f82610a4f565b9050602081019050919050565b82818337600083830152505050565b6000610b6e610b6984610b1b565b610ac0565b905082815260208101848484011115610b8a57610b89610b16565b5b610b95848285610b4c565b509392505050565b600082601f830112610bb257610bb1610a4a565b5b8135610bc2848260208601610b5b565b91505092915050565b600060408284031215610be157610be0610b0c565b5b610beb6040610ac0565b9050600082013567ffffffffffffffff811115610c0b57610c0a610b11565b5b610c1784828501610b9d565b6000830152506020610c2b848285016108c9565b60208301525092915050565b6000610c4a610c4584610adb565b610ac0565b90508083825260208201905060208402830185811115610c6d57610c6c610b07565b5b835b81811015610cb457803567ffffffffffffffff811115610c9257610c91610a4a565b5b808601610c9f8982610bcb565b85526020850194505050602081019050610c6f565b5050509392505050565b600082601f830112610cd357610cd2610a4a565b5b8135610ce3848260208601610c37565b91505092915050565b600060208284031215610d0257610d0161089e565b5b600082013567ffffffffffffffff811115610d2057610d1f6108a3565b5b610d2c84828501610cbe565b91505092915050565b600081519050919050565b600082825260208201905092915050565b60005b83811015610d6f578082015181840152602081019050610d54565b83811115610d7e576000848401525b50505050565b6000610d8f82610d35565b610d998185610d40565b9350610da9818560208601610d51565b610db281610a4f565b840191505092915050565b60006020820190508181036000830152610dd78184610d84565b905092915050565b610de8816108a8565b82525050565b6000602082019050610e036000830184610ddf565b92915050565b60006040820190508181036000830152610e238185610d84565b9050610e326020830184610ddf565b9392505050565b610e42816109a9565b82525050565b6000602082019050610e5d6000830184610e39565b92915050565b6000819050919050565b6000819050919050565b6000610e92610e8d610e8884610e63565b610e6d565b6108a8565b9050919050565b610ea281610e77565b82525050565b6000604082019050610ebd6000830185610e39565b610eca6020830184610e99565b9392505050565b610eda81610a14565b8114610ee557600080fd5b50565b600081519050610ef781610ed1565b92915050565b600060208284031215610f1357610f1261089e565b5b6000610f2184828501610ee8565b91505092915050565b7f596f7520617265206e6f7420656c696769626c6520746f20766f746500000000600082015250565b6000610f60601c83610d40565b9150610f6b82610f2a565b602082019050919050565b60006020820190508181036000830152610f8f81610f53565b9050919050565b7f496e76616c69642063616e64696461746520696e646578000000000000000000600082015250565b6000610fcc601783610d40565b9150610fd782610f96565b602082019050919050565b60006020820190508181036000830152610ffb81610fbf565b9050919050565b7f596f75206861766520616c726561647920766f74656400000000000000000000600082015250565b6000611038601683610d40565b915061104382611002565b602082019050919050565b600060208201905081810360008301526110678161102b565b9050919050565b7f4e487b7100000000000000000000000000000000000000000000000000000000600052603260045260246000fd5b7f4e487b7100000000000000000000000000000000000000000000000000000000600052601160045260246000fd5b60006110d7826108a8565b91507fffffffffffffffffffffffffffffffffffffffffffffffffffffffffffffffff82036111095761110861109d565b5b600182019050919050565b7f496e73756666696369656e742062616c616e636520696e20636f6e7472616374600082015250565b600061114a602083610d40565b915061115582611114565b602082019050919050565b600060208201905081810360008301526111798161113d565b9050919050565b7f4e6f2063616e646964617465732070726f766964656400000000000000000000600082015250565b60006111b6601683610d40565b91506111c182611180565b602082019050919050565b600060208201905081810360008301526111e5816111a9565b9050919050565b7f4e6f2077696e6e657220666f756e640000000000000000000000000000000000600082015250565b6000611222600f83610d40565b915061122d826111ec565b602082019050919050565b6000602082019050818103600083015261125181611215565b9050919050565b7f4e487b7100000000000000000000000000000000000000000000000000000000600052602260045260246000fd5b6000600282049050600182168061129f57607f821691505b6020821081036112b2576112b1611258565b5b5091905056fea264697066735822122056fc375b6b71d46563fe203d424bf089e318dc9ac60cc622238caf8f96b7a63e64736f6c634300080d0033",
  "immutableReferences": {},
  "source": "pragma solidity ^0.8.0;\r\n\r\nimport \"./VotingPermissions.sol\";\r\n\r\ncontract Voting {\r\n    // Struct to represent a candidate\r\n    struct Candidate {\r\n        string name;\r\n        uint256 voteCount;\r\n    }\r\n\r\n    // Array of candidates\r\n    Candidate[] public candidates;\r\n\r\n     // Address of the voting permissions contract\r\n    address public votingPermissionsAddress;\r\n\r\n    // Mapping to track if an address has voted\r\n    mapping(address => bool) public hasVoted;\r\n\r\n    // Event emitted when a voter casts a vote\r\n    event Voted(address indexed _voter, uint256 _candidateIndex);\r\n\r\n    // Event emitted when a new candidate is added\r\n    event CandidateAdded(string _name);\r\n\r\n    // Owner of the contract\r\n    address public owner;\r\n\r\n    // Modifier to restrict access to the owner\r\n    modifier onlyOwner() {\r\n        require(msg.sender == owner, \"Only the owner can call this function\");\r\n        _;\r\n    }\r\n\r\n    // Modifier to check eligibility based on age requirement\r\n    modifier eligibleToVote() {\r\n        require(VotingPermissions(votingPermissionsAddress).meetsAgeRequirement(msg.sender, 18), \"You are not eligible to vote\");\r\n        _;\r\n    }\r\n\r\n    // Constructor to initialize candidates and set owner\r\n    constructor(string[] memory _candidateNames, address _votingPermissionsAddress) {\r\n        owner = msg.sender;\r\n        for (uint256 i = 0; i < _candidateNames.length; i++) {\r\n            candidates.push(Candidate({\r\n                name: _candidateNames[i],\r\n                voteCount: 0\r\n            }));\r\n            emit CandidateAdded(_candidateNames[i]);\r\n        }\r\n        votingPermissionsAddress = _votingPermissionsAddress;\r\n    }\r\n\r\n    // function to get the owner of the contract\r\n\r\n    function getOwner() external view returns (address) {\r\n        return owner;\r\n    }\r\n\r\n\r\n    // new function to vote for candidate\r\n\r\n    function vote(uint256 _candidateIndex) external eligibleToVote  {\r\n    require(_candidateIndex < candidates.length, \"Invalid candidate index\");\r\n\r\n    // Check if the sender has already voted\r\n    require(!hasVoted[msg.sender], \"You have already voted\");\r\n\r\n    // Increment the vote count for the selected candidate\r\n    candidates[_candidateIndex].voteCount++;\r\n    hasVoted[msg.sender] = true;\r\n\r\n    emit Voted(msg.sender, _candidateIndex);\r\n    }\r\n\r\n\r\n   // new function to vote for candidate\r\n\r\n    // Function to get the total votes for a candidate\r\n    function totalVotesFor(uint256 _candidateIndex) external view returns (uint256) {\r\n        require(_candidateIndex < candidates.length, \"Invalid candidate index\");\r\n        return candidates[_candidateIndex].voteCount;\r\n    }\r\n\r\n    // Function to get the total number of candidates\r\n    function getCandidateCount() external view returns (uint256) {\r\n        return candidates.length;\r\n    }\r\n\r\n     function calculateWinner(Candidate[] memory _candidates) external pure returns (string memory) {\r\n        require(_candidates.length > 0, \"No candidates provided\");\r\n        \r\n        uint256 winningVoteCount = 0;\r\n        string memory winnerName;\r\n        \r\n        for (uint256 i = 0; i < _candidates.length; i++) {\r\n            if (_candidates[i].voteCount > winningVoteCount) {\r\n                winningVoteCount = _candidates[i].voteCount;\r\n                winnerName = _candidates[i].name;\r\n            }\r\n        }\r\n        \r\n        require(bytes(winnerName).length > 0, \"No winner found\");\r\n        \r\n        return winnerName;\r\n    }\r\n\r\n    function transferEther(address payable _recipient, uint256 _amount) external payable {\r\n        require(address(this).balance >= _amount, \"Insufficient balance in contract\");\r\n        // Transfer Ether to the recipient\r\n        _recipient.transfer(_amount);\r\n    }\r\n\r\n}\r\n",
  "sourcePath": "C:\\Users\\Elena Georgescu\\Documents\\elena_fac\\blockchain_david\\BlockChain\\contracts\\Voting.sol",
  "compiler": {
    "name": "solc",
    "version": "0.8.13+commit.abaa5c0e.Emscripten.clang"
  },
  "schemaVersion": "3.4.16",
  "updatedAt": "2024-05-18T07:44:58.463Z",
  "networkType": "ethereum",
  "devdoc": {
    "kind": "dev",
    "methods": {},
    "version": 1
  },
  "userdoc": {
    "kind": "user",
    "methods": {},
    "version": 1
  }
}