{
  "contractName": "Voting",
  "abi": [
    {
      "inputs": [
        {
          "internalType": "string[]",
          "name": "_candidateNames",
          "type": "string[]"
        },
        {
          "internalType": "address",
          "name": "_votingPermissionsAddress",
          "type": "address"
        }
      ],
      "stateMutability": "nonpayable",
      "type": "constructor"
    },
    {
      "anonymous": false,
      "inputs": [
        {
          "indexed": false,
          "internalType": "string",
          "name": "_name",
          "type": "string"
        }
      ],
      "name": "CandidateAdded",
      "type": "event"
    },
    {
      "anonymous": false,
      "inputs": [
        {
          "indexed": true,
          "internalType": "address",
          "name": "sender",
          "type": "address"
        },
        {
          "indexed": false,
          "internalType": "uint256",
          "name": "amount",
          "type": "uint256"
        }
      ],
      "name": "EtherTransferred",
      "type": "event"
    },
    {
      "anonymous": false,
      "inputs": [
        {
          "indexed": true,
          "internalType": "address",
          "name": "_voter",
          "type": "address"
        },
        {
          "indexed": false,
          "internalType": "uint256",
          "name": "_candidateIndex",
          "type": "uint256"
        }
      ],
      "name": "Voted",
      "type": "event"
    },
    {
      "inputs": [
        {
          "internalType": "uint256",
          "name": "",
          "type": "uint256"
        }
      ],
      "name": "candidates",
      "outputs": [
        {
          "internalType": "string",
          "name": "name",
          "type": "string"
        },
        {
          "internalType": "uint256",
          "name": "voteCount",
          "type": "uint256"
        }
      ],
      "stateMutability": "view",
      "type": "function",
      "constant": true
    },
    {
      "inputs": [
        {
          "internalType": "address",
          "name": "",
          "type": "address"
        }
      ],
      "name": "hasVoted",
      "outputs": [
        {
          "internalType": "bool",
          "name": "",
          "type": "bool"
        }
      ],
      "stateMutability": "view",
      "type": "function",
      "constant": true
    },
    {
      "inputs": [],
      "name": "owner",
      "outputs": [
        {
          "internalType": "address",
          "name": "",
          "type": "address"
        }
      ],
      "stateMutability": "view",
      "type": "function",
      "constant": true
    },
    {
      "inputs": [],
      "name": "votingPermissionsAddress",
      "outputs": [
        {
          "internalType": "address",
          "name": "",
          "type": "address"
        }
      ],
      "stateMutability": "view",
      "type": "function",
      "constant": true
    },
    {
      "inputs": [],
      "name": "getOwner",
      "outputs": [
        {
          "internalType": "address",
          "name": "",
          "type": "address"
        }
      ],
      "stateMutability": "view",
      "type": "function",
      "constant": true
    },
    {
      "inputs": [
        {
          "internalType": "uint256",
          "name": "_candidateIndex",
          "type": "uint256"
        }
      ],
      "name": "vote",
      "outputs": [],
      "stateMutability": "payable",
      "type": "function",
      "payable": true
    },
    {
      "inputs": [],
      "name": "withdrawEther",
      "outputs": [],
      "stateMutability": "nonpayable",
      "type": "function"
    },
    {
      "inputs": [
        {
          "internalType": "uint256",
          "name": "_candidateIndex",
          "type": "uint256"
        }
      ],
      "name": "totalVotesFor",
      "outputs": [
        {
          "internalType": "uint256",
          "name": "",
          "type": "uint256"
        }
      ],
      "stateMutability": "view",
      "type": "function",
      "constant": true
    },
    {
      "inputs": [],
      "name": "getCandidateCount",
      "outputs": [
        {
          "internalType": "uint256",
          "name": "",
          "type": "uint256"
        }
      ],
      "stateMutability": "view",
      "type": "function",
      "constant": true
    },
    {
      "inputs": [
        {
          "components": [
            {
              "internalType": "string",
              "name": "name",
              "type": "string"
            },
            {
              "internalType": "uint256",
              "name": "voteCount",
              "type": "uint256"
            }
          ],
          "internalType": "struct Voting.Candidate[]",
          "name": "_candidates",
          "type": "tuple[]"
        }
      ],
      "name": "calculateWinner",
      "outputs": [
        {
          "internalType": "string",
          "name": "",
          "type": "string"
        }
      ],
      "stateMutability": "pure",
      "type": "function",
      "constant": true
    }
  ],
  "bytecode": "0x60806040523480156200001157600080fd5b5060405162001a9b38038062001a9b833981810160405281019062000037919062000572565b33600360006101000a81548173ffffffffffffffffffffffffffffffffffffffff021916908373ffffffffffffffffffffffffffffffffffffffff16021790555060005b82518110156200017a5760006040518060400160405280858481518110620000a857620000a7620005d8565b5b6020026020010151815260200160008152509080600181540180825580915050600190039060005260206000209060020201600090919091909150600082015181600001908051906020019062000101929190620001c4565b506020820151816001015550507ff29562dad1599aea0ebb142466120aab326d5efa8f839df82a9c064bf78e8938838281518110620001455762000144620005d8565b5b60200260200101516040516200015c919062000664565b60405180910390a180806200017190620006c1565b9150506200007b565b5080600160006101000a81548173ffffffffffffffffffffffffffffffffffffffff021916908373ffffffffffffffffffffffffffffffffffffffff160217905550505062000772565b828054620001d2906200073d565b90600052602060002090601f016020900481019282620001f6576000855562000242565b82601f106200021157805160ff191683800117855562000242565b8280016001018555821562000242579182015b828111156200024157825182559160200191906001019062000224565b5b50905062000251919062000255565b5090565b5b808211156200027057600081600090555060010162000256565b5090565b6000604051905090565b600080fd5b600080fd5b600080fd5b6000601f19601f8301169050919050565b7f4e487b7100000000000000000000000000000000000000000000000000000000600052604160045260246000fd5b620002d8826200028d565b810181811067ffffffffffffffff82111715620002fa57620002f96200029e565b5b80604052505050565b60006200030f62000274565b90506200031d8282620002cd565b919050565b600067ffffffffffffffff82111562000340576200033f6200029e565b5b602082029050602081019050919050565b600080fd5b600080fd5b600067ffffffffffffffff8211156200037957620003786200029e565b5b62000384826200028d565b9050602081019050919050565b60005b83811015620003b157808201518184015260208101905062000394565b83811115620003c1576000848401525b50505050565b6000620003de620003d8846200035b565b62000303565b905082815260208101848484011115620003fd57620003fc62000356565b5b6200040a84828562000391565b509392505050565b600082601f8301126200042a576200042962000288565b5b81516200043c848260208601620003c7565b91505092915050565b60006200045c620004568462000322565b62000303565b9050808382526020820190506020840283018581111562000482576200048162000351565b5b835b81811015620004d057805167ffffffffffffffff811115620004ab57620004aa62000288565b5b808601620004ba898262000412565b8552602085019450505060208101905062000484565b5050509392505050565b600082601f830112620004f257620004f162000288565b5b81516200050484826020860162000445565b91505092915050565b600073ffffffffffffffffffffffffffffffffffffffff82169050919050565b60006200053a826200050d565b9050919050565b6200054c816200052d565b81146200055857600080fd5b50565b6000815190506200056c8162000541565b92915050565b600080604083850312156200058c576200058b6200027e565b5b600083015167ffffffffffffffff811115620005ad57620005ac62000283565b5b620005bb85828601620004da565b9250506020620005ce858286016200055b565b9150509250929050565b7f4e487b7100000000000000000000000000000000000000000000000000000000600052603260045260246000fd5b600081519050919050565b600082825260208201905092915050565b6000620006308262000607565b6200063c818562000612565b93506200064e81856020860162000391565b62000659816200028d565b840191505092915050565b6000602082019050818103600083015262000680818462000623565b905092915050565b7f4e487b7100000000000000000000000000000000000000000000000000000000600052601160045260246000fd5b6000819050919050565b6000620006ce82620006b7565b91507fffffffffffffffffffffffffffffffffffffffffffffffffffffffffffffffff820362000703576200070262000688565b5b600182019050919050565b7f4e487b7100000000000000000000000000000000000000000000000000000000600052602260045260246000fd5b600060028204905060018216806200075657607f821691505b6020821081036200076c576200076b6200070e565b5b50919050565b61131980620007826000396000f3fe6080604052600436106100915760003560e01c8063548841251161005957806354884125146101955780637362377b146101c0578063893d20e8146101d75780638da5cb5b14610202578063a805f1ca1461022d57610091565b80630121b93f1461009657806309eef43e146100b25780632d19de78146100ef57806330a563471461012c5780633477ee2e14610157575b600080fd5b6100b060048036038101906100ab9190610987565b61026a565b005b3480156100be57600080fd5b506100d960048036038101906100d49190610a12565b61054e565b6040516100e69190610a5a565b60405180910390f35b3480156100fb57600080fd5b5061011660048036038101906101119190610d17565b61056e565b6040516101239190610de8565b60405180910390f35b34801561013857600080fd5b5061014161068f565b60405161014e9190610e19565b60405180910390f35b34801561016357600080fd5b5061017e60048036038101906101799190610987565b61069b565b60405161018c929190610e34565b60405180910390f35b3480156101a157600080fd5b506101aa610757565b6040516101b79190610e73565b60405180910390f35b3480156101cc57600080fd5b506101d561077d565b005b3480156101e357600080fd5b506101ec610878565b6040516101f99190610e73565b60405180910390f35b34801561020e57600080fd5b506102176108a2565b6040516102249190610e73565b60405180910390f35b34801561023957600080fd5b50610254600480360381019061024f9190610987565b6108c8565b6040516102619190610e19565b60405180910390f35b600160009054906101000a900473ffffffffffffffffffffffffffffffffffffffff1673ffffffffffffffffffffffffffffffffffffffff166380352c263360126040518363ffffffff1660e01b81526004016102c8929190610ed3565b602060405180830381865afa1580156102e5573d6000803e3d6000fd5b505050506040513d601f19601f820116820180604052508101906103099190610f28565b610348576040517f08c379a000000000000000000000000000000000000000000000000000000000815260040161033f90610fa1565b60405180910390fd5b600080549050811061038f576040517f08c379a00000000000000000000000000000000000000000000000000000000081526004016103869061100d565b60405180910390fd5b600260003373ffffffffffffffffffffffffffffffffffffffff1673ffffffffffffffffffffffffffffffffffffffff16815260200190815260200160002060009054906101000a900460ff161561041c576040517f08c379a000000000000000000000000000000000000000000000000000000000815260040161041390611079565b60405180910390fd5b600081815481106104305761042f611099565b5b90600052602060002090600202016001016000815480929190610452906110f7565b91905055506001600260003373ffffffffffffffffffffffffffffffffffffffff1673ffffffffffffffffffffffffffffffffffffffff16815260200190815260200160002060006101000a81548160ff0219169083151502179055503373ffffffffffffffffffffffffffffffffffffffff167f4d99b957a2bc29a30ebd96a7be8e68fe50a3c701db28a91436490b7d53870ca4826040516104f59190610e19565b60405180910390a23373ffffffffffffffffffffffffffffffffffffffff167f2bd8874aee0f667380057c67e3a812157e4b7649b244d6fcbc9094a9a1f7ee1d346040516105439190610e19565b60405180910390a250565b60026020528060005260406000206000915054906101000a900460ff1681565b606060008251116105b4576040517f08c379a00000000000000000000000000000000000000000000000000000000081526004016105ab9061118b565b60405180910390fd5b6000606060005b845181101561064057828582815181106105d8576105d7611099565b5b602002602001015160200151111561062d578481815181106105fd576105fc611099565b5b602002602001015160200151925084818151811061061e5761061d611099565b5b60200260200101516000015191505b8080610638906110f7565b9150506105bb565b506000815111610685576040517f08c379a000000000000000000000000000000000000000000000000000000000815260040161067c906111f7565b60405180910390fd5b8092505050919050565b60008080549050905090565b600081815481106106ab57600080fd5b90600052602060002090600202016000915090508060000180546106ce90611246565b80601f01602080910402602001604051908101604052809291908181526020018280546106fa90611246565b80156107475780601f1061071c57610100808354040283529160200191610747565b820191906000526020600020905b81548152906001019060200180831161072a57829003601f168201915b5050505050908060010154905082565b600160009054906101000a900473ffffffffffffffffffffffffffffffffffffffff1681565b600360009054906101000a900473ffffffffffffffffffffffffffffffffffffffff1673ffffffffffffffffffffffffffffffffffffffff163373ffffffffffffffffffffffffffffffffffffffff161461080d576040517f08c379a0000000000000000000000000000000000000000000000000000000008152600401610804906112c3565b60405180910390fd5b600360009054906101000a900473ffffffffffffffffffffffffffffffffffffffff1673ffffffffffffffffffffffffffffffffffffffff166108fc479081150290604051600060405180830381858888f19350505050158015610875573d6000803e3d6000fd5b50565b6000600360009054906101000a900473ffffffffffffffffffffffffffffffffffffffff16905090565b600360009054906101000a900473ffffffffffffffffffffffffffffffffffffffff1681565b600080805490508210610910576040517f08c379a00000000000000000000000000000000000000000000000000000000081526004016109079061100d565b60405180910390fd5b6000828154811061092457610923611099565b5b9060005260206000209060020201600101549050919050565b6000604051905090565b600080fd5b600080fd5b6000819050919050565b61096481610951565b811461096f57600080fd5b50565b6000813590506109818161095b565b92915050565b60006020828403121561099d5761099c610947565b5b60006109ab84828501610972565b91505092915050565b600073ffffffffffffffffffffffffffffffffffffffff82169050919050565b60006109df826109b4565b9050919050565b6109ef816109d4565b81146109fa57600080fd5b50565b600081359050610a0c816109e6565b92915050565b600060208284031215610a2857610a27610947565b5b6000610a36848285016109fd565b91505092915050565b60008115159050919050565b610a5481610a3f565b82525050565b6000602082019050610a6f6000830184610a4b565b92915050565b600080fd5b6000601f19601f8301169050919050565b7f4e487b7100000000000000000000000000000000000000000000000000000000600052604160045260246000fd5b610ac382610a7a565b810181811067ffffffffffffffff82111715610ae257610ae1610a8b565b5b80604052505050565b6000610af561093d565b9050610b018282610aba565b919050565b600067ffffffffffffffff821115610b2157610b20610a8b565b5b602082029050602081019050919050565b600080fd5b600080fd5b600080fd5b600080fd5b600067ffffffffffffffff821115610b6157610b60610a8b565b5b610b6a82610a7a565b9050602081019050919050565b82818337600083830152505050565b6000610b99610b9484610b46565b610aeb565b905082815260208101848484011115610bb557610bb4610b41565b5b610bc0848285610b77565b509392505050565b600082601f830112610bdd57610bdc610a75565b5b8135610bed848260208601610b86565b91505092915050565b600060408284031215610c0c57610c0b610b37565b5b610c166040610aeb565b9050600082013567ffffffffffffffff811115610c3657610c35610b3c565b5b610c4284828501610bc8565b6000830152506020610c5684828501610972565b60208301525092915050565b6000610c75610c7084610b06565b610aeb565b90508083825260208201905060208402830185811115610c9857610c97610b32565b5b835b81811015610cdf57803567ffffffffffffffff811115610cbd57610cbc610a75565b5b808601610cca8982610bf6565b85526020850194505050602081019050610c9a565b5050509392505050565b600082601f830112610cfe57610cfd610a75565b5b8135610d0e848260208601610c62565b91505092915050565b600060208284031215610d2d57610d2c610947565b5b600082013567ffffffffffffffff811115610d4b57610d4a61094c565b5b610d5784828501610ce9565b91505092915050565b600081519050919050565b600082825260208201905092915050565b60005b83811015610d9a578082015181840152602081019050610d7f565b83811115610da9576000848401525b50505050565b6000610dba82610d60565b610dc48185610d6b565b9350610dd4818560208601610d7c565b610ddd81610a7a565b840191505092915050565b60006020820190508181036000830152610e028184610daf565b905092915050565b610e1381610951565b82525050565b6000602082019050610e2e6000830184610e0a565b92915050565b60006040820190508181036000830152610e4e8185610daf565b9050610e5d6020830184610e0a565b9392505050565b610e6d816109d4565b82525050565b6000602082019050610e886000830184610e64565b92915050565b6000819050919050565b6000819050919050565b6000610ebd610eb8610eb384610e8e565b610e98565b610951565b9050919050565b610ecd81610ea2565b82525050565b6000604082019050610ee86000830185610e64565b610ef56020830184610ec4565b9392505050565b610f0581610a3f565b8114610f1057600080fd5b50565b600081519050610f2281610efc565b92915050565b600060208284031215610f3e57610f3d610947565b5b6000610f4c84828501610f13565b91505092915050565b7f596f7520617265206e6f7420656c696769626c6520746f20766f746500000000600082015250565b6000610f8b601c83610d6b565b9150610f9682610f55565b602082019050919050565b60006020820190508181036000830152610fba81610f7e565b9050919050565b7f496e76616c69642063616e64696461746520696e646578000000000000000000600082015250565b6000610ff7601783610d6b565b915061100282610fc1565b602082019050919050565b6000602082019050818103600083015261102681610fea565b9050919050565b7f596f75206861766520616c726561647920766f74656400000000000000000000600082015250565b6000611063601683610d6b565b915061106e8261102d565b602082019050919050565b6000602082019050818103600083015261109281611056565b9050919050565b7f4e487b7100000000000000000000000000000000000000000000000000000000600052603260045260246000fd5b7f4e487b7100000000000000000000000000000000000000000000000000000000600052601160045260246000fd5b600061110282610951565b91507fffffffffffffffffffffffffffffffffffffffffffffffffffffffffffffffff8203611134576111336110c8565b5b600182019050919050565b7f4e6f2063616e646964617465732070726f766964656400000000000000000000600082015250565b6000611175601683610d6b565b91506111808261113f565b602082019050919050565b600060208201905081810360008301526111a481611168565b9050919050565b7f4e6f2077696e6e657220666f756e640000000000000000000000000000000000600082015250565b60006111e1600f83610d6b565b91506111ec826111ab565b602082019050919050565b60006020820190508181036000830152611210816111d4565b9050919050565b7f4e487b7100000000000000000000000000000000000000000000000000000000600052602260045260246000fd5b6000600282049050600182168061125e57607f821691505b60208210810361127157611270611217565b5b50919050565b7f4f6e6c792061646d696e2063616e207769746864726177204574686572000000600082015250565b60006112ad601d83610d6b565b91506112b882611277565b602082019050919050565b600060208201905081810360008301526112dc816112a0565b905091905056fea2646970667358221220fb2a23d7695c8225fc111ce909a02ca5560a2006be41006966061186c2b95de664736f6c634300080d0033",
  "immutableReferences": {},
  "source": "pragma solidity ^0.8.0;\r\n\r\nimport \"./VotingPermissions.sol\";\r\n\r\ncontract Voting {\r\n    // Struct to represent a candidate\r\n    struct Candidate {\r\n        string name;\r\n        uint256 voteCount;\r\n    }\r\n\r\n    // Array of candidates\r\n    Candidate[] public candidates;\r\n\r\n     // Address of the voting permissions contract\r\n    address public votingPermissionsAddress;\r\n\r\n    // Mapping to track if an address has voted\r\n    mapping(address => bool) public hasVoted;\r\n\r\n    // Event emitted when a voter casts a vote\r\n    event Voted(address indexed _voter, uint256 _candidateIndex);\r\n\r\n    // Event emitted when a new candidate is added\r\n    event CandidateAdded(string _name);\r\n\r\n    // Owner of the contract\r\n    address public owner;\r\n\r\n    // Modifier to restrict access to the owner\r\n    modifier onlyOwner() {\r\n        require(msg.sender == owner, \"Only the owner can call this function\");\r\n        _;\r\n    }\r\n\r\n    // Modifier to check eligibility based on age requirement\r\n    modifier eligibleToVote() {\r\n        require(VotingPermissions(votingPermissionsAddress).meetsAgeRequirement(msg.sender, 18), \"You are not eligible to vote\");\r\n        _;\r\n    }\r\n\r\n    // Constructor to initialize candidates and set owner\r\n    constructor(string[] memory _candidateNames, address _votingPermissionsAddress) {\r\n        owner = msg.sender;\r\n        for (uint256 i = 0; i < _candidateNames.length; i++) {\r\n            candidates.push(Candidate({\r\n                name: _candidateNames[i],\r\n                voteCount: 0\r\n            }));\r\n            emit CandidateAdded(_candidateNames[i]);\r\n        }\r\n        votingPermissionsAddress = _votingPermissionsAddress;\r\n    }\r\n\r\n    // function to get the owner of the contract\r\n\r\n    function getOwner() external view returns (address) {\r\n        return owner;\r\n    }\r\n\r\n    // Event to log Ether transfer\r\n    event EtherTransferred(address indexed sender, uint256 amount);\r\n\r\n\r\n\r\n    // new function to vote for candidate\r\n\r\n    function vote(uint256 _candidateIndex) external eligibleToVote  payable{\r\n    require(_candidateIndex < candidates.length, \"Invalid candidate index\");\r\n\r\n    // Check if the sender has already voted\r\n    require(!hasVoted[msg.sender], \"You have already voted\");\r\n\r\n    // Increment the vote count for the selected candidate\r\n    candidates[_candidateIndex].voteCount++;\r\n    hasVoted[msg.sender] = true;\r\n\r\n    emit Voted(msg.sender, _candidateIndex);\r\n\r\n     // Emit event for Ether transfer\r\n    emit EtherTransferred(msg.sender, msg.value);\r\n    }\r\n\r\n    // only admin should withdraw ether\r\n\r\n    function withdrawEther() external {\r\n    require(msg.sender == owner, \"Only admin can withdraw Ether\");\r\n    // Transfer all Ether balance to the admin\r\n    payable(owner).transfer(address(this).balance);\r\n    }\r\n\r\n\r\n   // new function to vote for candidate\r\n\r\n    // Function to get the total votes for a candidate\r\n    function totalVotesFor(uint256 _candidateIndex) external view returns (uint256) {\r\n        require(_candidateIndex < candidates.length, \"Invalid candidate index\");\r\n        return candidates[_candidateIndex].voteCount;\r\n    }\r\n\r\n    // Function to get the total number of candidates\r\n    function getCandidateCount() external view returns (uint256) {\r\n        return candidates.length;\r\n    }\r\n\r\n    function calculateWinner(Candidate[] memory _candidates) external pure returns (string memory) {\r\n        require(_candidates.length > 0, \"No candidates provided\");\r\n        \r\n        uint256 winningVoteCount = 0;\r\n        string memory winnerName;\r\n        \r\n        for (uint256 i = 0; i < _candidates.length; i++) {\r\n            if (_candidates[i].voteCount > winningVoteCount) {\r\n                winningVoteCount = _candidates[i].voteCount;\r\n                winnerName = _candidates[i].name;\r\n            }\r\n        }\r\n        \r\n        require(bytes(winnerName).length > 0, \"No winner found\");\r\n        \r\n        return winnerName;\r\n    }\r\n}\r\n",
  "sourcePath": "C:\\Users\\Elena Georgescu\\Documents\\elena_fac\\blockchain_david\\BlockChain\\contracts\\Voting.sol",
  "compiler": {
    "name": "solc",
    "version": "0.8.13+commit.abaa5c0e.Emscripten.clang"
  },
  "schemaVersion": "3.4.16",
  "updatedAt": "2024-05-13T18:08:03.411Z",
  "networkType": "ethereum",
  "devdoc": {
    "kind": "dev",
    "methods": {},
    "version": 1
  },
  "userdoc": {
    "kind": "user",
    "methods": {},
    "version": 1
  }
}